:100000000C942A000C943F000C943F000C943F0089
:100010000C943F000C943F000C943F000C943F0064
:100020000C943F000C943F000C943F000C943F0054
:100030000C943F000C943F000C943F000C943F0044
:100040000C943F000C943F000C943F000C943F0034
:100050000C943F0011241FBECFE5D8E0DEBFCDBF1A
:1000600010E0A0E6B0E0E0E7F6E102C005900D92F6
:10007000A836B107D9F70E94B7070C94360B0C9439
:100080000000EF92FF920F931F937B018C0120E001
:1000900030E040E05FE40E94410388238CF0C80117
:1000A000B70120E030E040E05FE40E94B9010E9427
:1000B000A1039B01AC01205030404040504806C095
:1000C000C801B7010E94A1039B01AC01B901CA019B
:1000D0001F910F91FF90EF900895A0E0B0E0E3E74B
:1000E000F0E00C94FF0ADC012B01FA019C919230A4
:1000F00008F439C1EB018881823008F433C19430AF
:1001000069F4843009F02FC111969C91119789816F
:10011000981709F428C1A0E6B0E025C1843009F49D
:1001200021C18230A9F4923009F01DC19A01AD01BC
:1001300088E0EA010990AE01E90109929E0181502F
:10014000C1F7E201898111969C918923818308C1BD
:10015000923009F407C112962D903C901397EB0151
:100160008A819B811496AD90BD90CD90DC901797BD
:10017000EC80FD800E811F819101281B390BB90194
:1001800037FF04C066277727621B730B6032710547
:100190000CF061C0121613066CF537014801062EEB
:1001A00004C096948794779467940A94D2F721E0D8
:1001B00030E040E050E004C0220F331F441F551FC1
:1001C0006A95D2F721503040404050402E213F21C7
:1001D00040235123211531054105510521F021E02E
:1001E00030E040E050E079018A01E628F72808294C
:1001F00019293CC0232BD1F1260E371E35014601AB
:10020000062E04C096948794779467940A94D2F744
:1002100021E030E040E050E004C0220F331F441FD3
:10022000551F6A95D2F721503040404050402A2156
:100230003B214C215D21211531054105510521F05E
:1002400021E030E040E050E059016A01A628B728DB
:10025000C828D9280BC0821593052CF01C01AA24AC
:10026000BB24650103C0EE24FF24870111969C91F5
:10027000D20111968C91981709F445C0992339F051
:10028000A80197012A193B094C095D0906C0A6017E
:1002900095012E193F09400B510B57FD08C01182E3
:1002A0003382228224833583468357831DC081E0B5
:1002B00081833382228288279927DC01821B930B5A
:1002C000A40BB50B84839583A683B7830DC0220F3F
:1002D000331F441F551F24833583468357838281F0
:1002E000938101979383828324813581468157814D
:1002F000DA01C9010197A109B1098F5F9F4FAF4F83
:10030000BF4328F30BC0918333822282EA0CFB1C8B
:100310000C1D1D1DE482F5820683178383E0808314
:10032000248135814681578157FF1AC0C901AA2708
:1003300097FDA095BA2F81709070A070B0705695FF
:10034000479537952795822B932BA42BB52B848328
:100350009583A683B7838281938101969383828359
:10036000DF0101C0D201CD01CDB7DEB7E2E10C94CF
:100370001B0BA0E2B0E0EFEBF1E00C940B0B6983F8
:100380007A838B839C832D833E834F835887E9E058
:10039000EE2EF12CEC0EFD1ECE010196B7010E944F
:1003A000CA048E010F5E1F4FCE010596B8010E9450
:1003B000CA048A8991E089278A8BC701B801AE01F6
:1003C000475E5F4F0E946D000E94F503A096E6E035
:1003D0000C94270BA0E2B0E0E0EFF1E00C940B0BE3
:1003E00069837A838B839C832D833E834F835887D5
:1003F000F9E0EF2EF12CEC0EFD1ECE010196B701B7
:100400000E94CA048E010F5E1F4FCE010596B801EF
:100410000E94CA04C701B801AE01475E5F4F0E9447
:100420006D000E94F503A096E6E00C94270BA0E275
:10043000B0E0EDE1F2E00C94FF0A69837A838B83EC
:100440009C832D833E834F835887CE010196BE0146
:10045000675F7F4F0E94CA04CE010596BE016F5EA2
:100460007F4F0E94CA049985923088F08989823032
:10047000C8F0943019F4823051F404C0843029F467
:10048000923081F480E690E0C6C0923049F420E0DA
:100490009A858A89981321E02A87CE010996BBC0E4
:1004A000823049F420E09A858A89981321E02A8BCA
:1004B000CE014196B0C02D843E844F8458886D880B
:1004C0007E888F88988CEE24FF248701AA24BB2481
:1004D000650140E050E060E070E0E0E0F0E0C10184
:1004E00081709070892BE9F0E60CF71C081D191D2E
:1004F0009A01AB012A0D3B1D4C1D5D1D80E090E073
:10050000A0E0B0E0E614F7040805190520F481E046
:1005100090E0A0E0B0E0BA01A901480F591F6A1F9E
:100520007B1FAA0CBB1CCC1CDD1C97FE08C081E005
:1005300090E0A0E0B0E0A82AB92ACA2ADB2A3196C6
:10054000E032F10549F0660C771C881C991C569422
:10055000479437942794C3CFFA85EA892B893C893D
:100560008B859C85280F391F2E5F3F4F17C0CA010E
:1005700081709070892B61F016950795F794E79438
:1005800080E090E0A0E0B0E8E82AF92A0A2B1B2BD3
:1005900076956795579547952F5F3F4F77FDE7CF46
:1005A0000CC0440F551F661F771F17FD4160EE0CEE
:1005B000FF1C001F111F21503040403090E05907B0
:1005C00090E0690790E4790760F32B8F3C8FDB01A3
:1005D000CA018F779070A070B07080349105A1052A
:1005E000B10561F447FD0AC0E114F10401051105EC
:1005F00029F0405C5F4F6F4F7F4F40781A8EFE1797
:1006000011F081E08A8F4D8F5E8F6F8F78A383E02A
:10061000898FCE0149960E94F503A096E2E10C94E1
:100620001B0BA8E1B0E0E7E1F3E00C940B0B69834E
:100630007A838B839C832D833E834F83588789E005
:10064000E82EF12CEC0EFD1ECE010196B7010E94A2
:10065000CA048E010F5E1F4FCE010596B8010E949D
:10066000CA048985823040F08989823028F0C70128
:10067000B8010E94420501C08FEF6896E6E00C9435
:10068000270BA8E1B0E0E7E4F3E00C940B0B6983DF
:100690007A838B839C832D833E834F83588789E0A5
:1006A000E82EF12CEC0EFD1ECE010196B7010E9442
:1006B000CA048E010F5E1F4FCE010596B8010E943D
:1006C000CA048985823040F08989823028F0C701C8
:1006D000B8010E94420501C08FEF6896E6E00C94D5
:1006E000270BA8E1B0E0E7E7F3E00C940B0B69837C
:1006F0007A838B839C832D833E834F83588789E045
:10070000E82EF12CEC0EFD1ECE010196B7010E94E1
:10071000CA048E010F5E1F4FCE010596B8010E94DC
:10072000CA048985823040F08989823028F0C70167
:10073000B8010E94420501C081E06896E6E00C9491
:10074000270BACE0B0E0E7EAF3E00C940F0B698311
:100750007A838B839C83CE010196BE016B5F7F4FB2
:100760000E94CA048D81823061F1823050F1843060
:1007700021F48E81882351F12EC02F81388537FDD9
:1007800020C06E812F3131051CF06623F9F023C0A3
:100790008EE190E0821B930B29853A854B855C8521
:1007A00004C056954795379527958A95D2F76623C5
:1007B000B1F050954095309521953F4F4F4F5F4F89
:1007C0000EC020E030E040E050E009C02FEF3FEFE6
:1007D0004FEF5FE704C020E030E040E050E8B901AF
:1007E000CA012C96E2E00C942B0BDF92EF92FF9261
:1007F0000F931F93FC01E480F58006811781D1805F
:100800008081823048F480E090E0A0E1B0E0E82A06
:10081000F92A0A2B1B2BA5C0843009F49FC0823013
:1008200021F4EE24FF24870105C0E114F104010541
:10083000110519F4E0E0F0E096C0628173819FEF4A
:10084000623879070CF05BC022E83FEF261B370BBC
:100850002A3131052CF020E030E040E050E02AC0A1
:10086000B801A701022E04C0769567955795479564
:100870000A94D2F781E090E0A0E0B0E004C0880FD5
:10088000991FAA1FBB1F2A95D2F70197A109B10989
:100890008E219F21A023B1230097A105B10521F04E
:1008A00081E090E0A0E0B0E09A01AB01282B392B69
:1008B0004A2B5B2BDA01C9018F779070A070B07062
:1008C00080349105A105B10539F427FF09C0205CEA
:1008D0003F4F4F4F5F4F04C0215C3F4F4F4F5F4F23
:1008E000E0E0F0E02030A0E03A07A0E04A07A0E412
:1008F0005A0710F0E1E0F0E079018A0127C0603882
:10090000710564F5FB01E158FF4FD801C7018F77EE
:100910009070A070B07080349105A105B10539F4D4
:10092000E7FE0DC080E490E0A0E0B0E004C08FE3FB
:1009300090E0A0E0B0E0E80EF91E0A1F1B1F17FFB1
:1009400005C016950795F794E794319687E01695BC
:100950000795F794E7948A95D1F705C0EE24FF2414
:100960008701EFEFF0E06E2F679566276795902F70
:100970009F77D794DD24D7948E2F8695492F462BC9
:10098000582F5D29B701CA011F910F91FF90EF9079
:10099000DF900895FC01DB01408151812281622FAB
:1009A0006F7770E0221F2227221F9381892F880FE3
:1009B000822B282F30E0991F9927991F11969C931D
:1009C000119721153105A9F54115510561057105ED
:1009D00011F482E037C082E89FEF13969C938E93C8
:1009E00012979A01AB0167E0220F331F441F551F76
:1009F0006A95D1F783E08C930DC0220F331F441FFB
:100A0000551F12968D919C911397019713969C9365
:100A10008E931297203080E0380780E0480780E40A
:100A2000580758F314962D933D934D935C93179765
:100A300008952F3F310579F4411551056105710580
:100A400019F484E08C93089564FF03C081E08C93D3
:100A500012C01C9210C02F57304013963C932E9317
:100A6000129783E08C9387E0440F551F661F771F12
:100A70008A95D1F7706414964D935D936D937C9332
:100A8000179708951F93DC01FB019C91923008F4A5
:100A900047C08081823008F443C0943051F41196ED
:100AA0001C91843099F58181682F70E0611B710978
:100AB0003FC0843021F0923031F48230B9F181812D
:100AC000882389F12DC011961C9111978230F1F085
:100AD00081811817D9F412962D913C911397828138
:100AE00093818217930794F028173907BCF0149666
:100AF0008D919D910D90BC91A02D248135814681D1
:100B00005781281739074A075B0718F4112341F06A
:100B10000AC082179307A407B50740F4112319F000
:100B200061E070E005C06FEF7FEF02C060E070E051
:100B3000CB011F910895DF93CF93CDB7DEB7EAE3E2
:100B4000F0E08FEF8083E7E3F0E083E28083E4E38B
:100B5000F0E08FEF8083E1E3F0E081E88083CF91E4
:100B6000DF910895DF93CF93CDB7DEB72B970FB604
:100B7000F894DEBF0FBECDBF8A836B8319828A8152
:100B80008830D8F58B81282F30E03B872A878A85EB
:100B90009B85009731F02A853B8521303105B1F0E6
:100BA00029C0ABE3B0E0EBE3F0E08081482F8A811D
:100BB000282F30E081E090E0022E02C0880F991FBC
:100BC0000A94E2F7809584238C93F4C0ABE3B0E001
:100BD000EBE3F0E08081482F8A81282F30E081E02C
:100BE00090E0022E02C0880F991F0A94E2F7842B2E
:100BF0008C93E0C082E08983DDC08A81883008F46C
:100C000045C08A81803108F041C08B81282F30E0B7
:100C10003987288788859985009731F02885398517
:100C200021303105C9F02FC0A8E3B0E0E8E3F0E0DF
:100C30008081482F8A81882F90E09C012770307036
:100C400081E090E0022E02C0880F991F0A94E2F71B
:100C5000809584238C93AEC0A8E3B0E0E8E3F0E095
:100C60008081482F8A81882F90E09C012770307006
:100C700081E090E0022E02C0880F991F0A94E2F7EB
:100C8000842B8C9397C082E0898394C08A818031C1
:100C900008F445C08A81883108F041C08B81282F33
:100CA00030E03F832E838E819F81009731F02E812B
:100CB0003F8121303105C9F02FC0A5E3B0E0E5E365
:100CC000F0E08081482F8A81882F90E09C01277076
:100CD000307081E090E0022E02C0880F991F0A94C4
:100CE000E2F7809584238C9365C0A5E3B0E0E5E34B
:100CF000F0E08081482F8A81882F90E09C01277046
:100D0000307081E090E0022E02C0880F991F0A9493
:100D1000E2F7842B8C934EC082E089834BC08A819A
:100D2000883108F445C08A81803208F041C08B8147
:100D3000282F30E03D832C838C819D81009731F0FA
:100D40002C813D8121303105C9F02FC0A2E3B0E0F4
:100D5000E2E3F0E08081482F8A81882F90E09C01B7
:100D60002770307081E090E0022E02C0880F991F3A
:100D70000A94E2F7809584238C931CC0A2E3B0E030
:100D8000E2E3F0E08081482F8A81882F90E09C0187
:100D90002770307081E090E0022E02C0880F991F0A
:100DA0000A94E2F7842B8C9305C082E0898302C009
:100DB00082E0898389812B960FB6F894DEBF0FBE3F
:100DC000CDBFCF91DF910895DF93CF9300D000D0B6
:100DD000CDB7DEB78A837C836B8319828B819C813C
:100DE000009709F46EC08A818830A0F4E9E3F0E04E
:100DF0008081282F30E08A81882F90E0A90102C0ED
:100E0000559547958A95E2F7CA018170EB81FC817F
:100E1000808359C08A818830C8F08A818031B0F4DB
:100E2000E6E3F0E08081282F30E08A81882F90E08F
:100E300087709070A90102C0559547958A95E2F791
:100E4000CA018170EB81FC8180833DC08A81803141
:100E5000C8F08A818831B0F4E3E3F0E08081282F84
:100E600030E08A81882F90E087709070A90102C0DD
:100E7000559547958A95E2F7CA018170EB81FC810F
:100E8000808321C08A818831C8F08A818032B0F4A1
:100E9000E0E3F0E08081282F30E08A81882F90E025
:100EA00087709070A90102C0559547958A95E2F721
:100EB000CA018170EB81FC81808305C082E0898357
:100EC00002C083E0898389810F900F900F900F906B
:100ED000CF91DF910895DF93CF9300D0CDB7DEB7E8
:100EE00089836A8389816A810E94B2050F900F907D
:100EF000CF91DF910895DF93CF93CDB7DEB72897D9
:100F00000FB6F894DEBF0FBECDBF9C838B837E836C
:100F10006D834F831A8219821DC08981282F30E08A
:100F20008B819C81FC01E20FF31F40818981282F76
:100F300030E08D819E81FC01E20FF31F9081842FB0
:100F4000692F0E94B2058A838A81882339F48981B6
:100F50008F5F898399818F819817F8F228960FB651
:100F6000F894DEBF0FBECDBFCF91DF9108950F93F0
:100F70001F93DF93CF93CDB7DEB7C455D0400FB6E4
:100F8000F894DEBF0FBECDBF0E949B0580E061E0FC
:100F90000E94B20587E061E00E94B205FE01EF5AAF
:100FA000FF4F80E090E0AAE7B4E480839183A283BE
:100FB000B3838E01035B1F4FFE01EF5AFF4F608129
:100FC00071818281938120E030E04AEF54E40E94F5
:100FD0001702DC01CB01F80180839183A283B383E4
:100FE000FE01E35BFF4F608171818281938120E08C
:100FF00030E040E85FE30E947103882344F4FE017F
:10100000E55BFF4F81E090E09183808364C0FE0147
:10101000E35BFF4F608171818281938120E03FEF2C
:101020004FE757E40E94110318160CF043C0FE016D
:10103000EF5AFF4F608171818281938120E030E01F
:1010400040E251E40E941702DC01CB018E01055BF6
:101050001F4FBC01CD010E944100DC01CB01F80112
:10106000918380831FC0FE01E75BFF4F88EC90E017
:1010700091838083FE01E75BFF4F8081918101971F
:10108000F1F7FE01E75BFF4F91838083DE01A55BF3
:10109000BF4FFE01E55BFF4F808191810197119663
:1010A0009C938E93FE01E55BFF4F808191810097B9
:1010B000D1F627C08E01055B1F4FFE01E35BFF4F9A
:1010C00060817181828193810E944100DC01CB01AA
:1010D000F80191838083DE01A95BBF4FFE01E55BD0
:1010E000FF4F808191818D939C93FE01E95BFF4FBF
:1010F000808191810197F1F7FE01E95BFF4F9183B8
:10110000808381E061E00E94B20586E061E00E9498
:10111000B205FE01ED5BFF4F80E090E0AAE7B4E48A
:1011200080839183A283B3838E01015C1F4FFE01F4
:10113000ED5BFF4F608171818281938120E030E01F
:101140004AEF54E40E941702DC01CB01F8018083CE
:101150009183A283B383FE01FF96608171818281B6
:10116000938120E030E040E85FE30E947103882330
:101170002CF481E090E09EAF8DAF46C0FE01FF965B
:10118000608171818281938120E03FEF4FE757E4D6
:101190000E941103181664F5FE01ED5BFF4F60819C
:1011A00071818281938120E030E040E251E40E942D
:1011B0001702DC01CB01BC01CD010E944100DC0122
:1011C000CB019EAF8DAF0FC088EC90E09CAF8BAF92
:1011D0008BAD9CAD0197F1F79CAF8BAF8DAD9EAD04
:1011E00001979EAF8DAF8DAD9EAD009769F716C08C
:1011F000FE01FF9660817181828193810E9441008E
:10120000DC01CB019EAF8DAF8DAD9EAD9AAF89AFA6
:1012100089AD9AAD0197F1F79AAF89AF82E061E0AD
:101220000E94B20585E061E00E94B20580E090E096
:10123000AAE7B4E48DAB9EABAFABB8AF6DA97EA906
:101240008FA998AD20E030E04AEF54E40E941702E5
:10125000DC01CB0189AB9AABABABBCAB69A97AA97A
:101260008BA99CA920E030E040E85FE30E94710375
:1012700088232CF481E090E098AB8FA73FC069A948
:101280007AA98BA99CA920E03FEF4FE757E40E9481
:10129000110318164CF56DA97EA98FA998AD20E011
:1012A00030E040E251E40E941702DC01CB01BC01B6
:1012B000CD010E944100DC01CB0198AB8FA70FC08C
:1012C00088EC90E09EA78DA78DA59EA50197F1F7CC
:1012D0009EA78DA78FA598A9019798AB8FA78FA5DB
:1012E00098A9009769F714C069A97AA98BA99CA944
:1012F0000E944100DC01CB0198AB8FA78FA598A974
:101300009CA78BA78BA59CA50197F1F79CA78BA702
:1013100083E061E00E94B20584E061E00E94B205D2
:1013200080E090E0AAE7B4E48FA398A7A9A7BAA7A2
:101330006FA178A589A59AA520E030E04AEF54E492
:101340000E941702DC01CB018BA39CA3ADA3BEA31B
:101350006BA17CA18DA19EA120E030E040E85FE37D
:101360000E94710388232CF481E090E09AA389A362
:101370003FC06BA17CA18DA19EA120E03FEF4FE774
:1013800057E40E94110318164CF56FA178A589A5A2
:101390009AA520E030E040E251E40E941702DC010F
:1013A000CB01BC01CD010E944100DC01CB019AA31D
:1013B00089A30FC088EC90E098A38F8F8F8D98A1A0
:1013C0000197F1F798A38F8F89A19AA101979AA30A
:1013D00089A389A19AA1009769F714C06BA17CA188
:1013E0008DA19EA10E944100DC01CB019AA389A39B
:1013F00089A19AA19E8F8D8F8D8D9E8D0197F1F77A
:101400009E8F8D8F83E060E00E94B20584E060E0F3
:101410000E94B20580E090E0AAE7B4E4898F9A8F39
:10142000AB8FBC8F698D7A8D8B8D9C8D20E030E0E9
:101430004AEF54E40E941702DC01CB018D8B9E8B96
:10144000AF8BB88F6D897E898F89988D20E030E0D1
:1014500040E85FE30E94710388232CF481E090E070
:101460009C8B8B8B3FC06D897E898F89988D20E006
:101470003FEF4FE757E40E94110318164CF5698DB2
:101480007A8D8B8D9C8D20E030E040E251E40E940B
:101490001702DC01CB01BC01CD010E944100DC013F
:1014A000CB019C8B8B8B0FC088EC90E09A8B898B47
:1014B00089899A890197F1F79A8B898B8B899C8905
:1014C00001979C8B8B8B8B899C89009769F714C043
:1014D0006D897E898F89988D0E944100DC01CB0146
:1014E0009C8B8B8B8B899C89988B8F878F85988918
:1014F0000197F1F7988B8F8782E060E00E94B20538
:1015000085E060E00E94B20580E090E0AAE7B4E4E4
:101510008B879C87AD87BE876B857C858D859E85F7
:1015200020E030E04AEF54E40E941702DC01CB01D6
:101530008F839887A987BA876F81788589859A85EF
:1015400020E030E040E85FE30E94710388232CF440
:1015500081E090E09E838D833FC06F81788589858F
:101560009A8520E03FEF4FE757E40E9411031816D9
:101570004CF56B857C858D859E8520E030E040E2D2
:1015800051E40E941702DC01CB01BC01CD010E9495
:101590004100DC01CB019E838D830FC088EC90E07D
:1015A0009C838B838B819C810197F1F79C838B8338
:1015B0008D819E8101979E838D838D819E81009771
:1015C00069F714C06F81788589859A850E944100EA
:1015D000DC01CB019E838D838D819E819A838983DB
:1015E00089819A810197F1F79A83898381E060E08C
:1015F0000E94B20586E060E00E94B205C7CC2F923F
:101600003F924F925F926F927F928F929F92AF9292
:10161000BF92CF92DF92EF92FF920F931F93CF93DF
:10162000DF93CDB7DEB7CA1BDB0B0FB6F894DEBF76
:101630000FBECDBF09942A88398848885F846E849C
:101640007D848C849B84AA84B984C884DF80EE80E6
:10165000FD800C811B81AA81B981CE0FD11D0FB6EF
:10166000F894DEBF0FBECDBFED010895F894FFCF13
:08167000000000000000000072
:00000001FF
